{
    "_format": "hh-sol-artifact-1",
    "contractName": "XPost",
    "sourceName": "contracts/XPost.sol",
    "abi": [
        {
            "inputs": [],
            "stateMutability": "nonpayable",
            "type": "constructor"
        },
        {
            "inputs": [],
            "name": "createPost",
            "outputs": [],
            "stateMutability": "nonpayable",
            "type": "function"
        },
        {
            "inputs": [],
            "name": "getTotalPosts",
            "outputs": [
                {
                    "internalType": "uint256",
                    "name": "",
                    "type": "uint256"
                }
            ],
            "stateMutability": "view",
            "type": "function"
        }
    ],
    "bytecode": "0x608060405234801561001057600080fd5b506100386040518060800160405280604e81526020016106ea604e913961003d60201b60201c565b61021e565b6100d98160405160240161005191906101cd565b6040516020818303038152906040527f41304fac000000000000000000000000000000000000000000000000000000007bffffffffffffffffffffffffffffffffffffffffffffffffffffffff19166020820180517bffffffffffffffffffffffffffffffffffffffffffffffffffffffff83818316178352505050506100dc60201b60201c565b50565b6100fd816100f861010060201b6101081761012160201b60201c565b60201c565b50565b60006a636f6e736f6c652e6c6f679050600080835160208501845afa505050565b61013360201b61028617819050919050565b61013b6101ef565b565b600081519050919050565b600082825260208201905092915050565b60005b8381101561017757808201518184015260208101905061015c565b60008484015250505050565b6000601f19601f8301169050919050565b600061019f8261013d565b6101a98185610148565b93506101b9818560208601610159565b6101c281610183565b840191505092915050565b600060208201905081810360008301526101e78184610194565b905092915050565b7f4e487b7100000000000000000000000000000000000000000000000000000000600052605160045260246000fd5b6104bd8061022d6000396000f3fe608060405234801561001057600080fd5b50600436106100365760003560e01c806345612d201461003b5780635fe226b414610045575b600080fd5b610043610063565b005b61004d6100bd565b60405161005a91906102a9565b60405180910390f35b600160008082825461007591906102f3565b925050819055506100bb6040518060400160405280601081526020017f2573206372696f75206f20706f7374210000000000000000000000000000000081525033610129565b565b60006101006040518060400160405280601281526020017f45752074656e686f20256420706f7374732100000000000000000000000000008152506000546101c5565b600054905090565b60006a636f6e736f6c652e6c6f679050600080835160208501845afa505050565b6101c1828260405160240161013f9291906103f8565b6040516020818303038152906040527f319af333000000000000000000000000000000000000000000000000000000007bffffffffffffffffffffffffffffffffffffffffffffffffffffffff19166020820180517bffffffffffffffffffffffffffffffffffffffffffffffffffffffff8381831617835250505050610261565b5050565b61025d82826040516024016101db929190610428565b6040516020818303038152906040527fb60e72cc000000000000000000000000000000000000000000000000000000007bffffffffffffffffffffffffffffffffffffffffffffffffffffffff19166020820180517bffffffffffffffffffffffffffffffffffffffffffffffffffffffff8381831617835250505050610261565b5050565b6102788161027061010861027b565b63ffffffff16565b50565b610286819050919050565b61028e610458565b565b6000819050919050565b6102a381610290565b82525050565b60006020820190506102be600083018461029a565b92915050565b7f4e487b7100000000000000000000000000000000000000000000000000000000600052601160045260246000fd5b60006102fe82610290565b915061030983610290565b9250828201905080821115610321576103206102c4565b5b92915050565b600081519050919050565b600082825260208201905092915050565b60005b83811015610361578082015181840152602081019050610346565b60008484015250505050565b6000601f19601f8301169050919050565b600061038982610327565b6103938185610332565b93506103a3818560208601610343565b6103ac8161036d565b840191505092915050565b600073ffffffffffffffffffffffffffffffffffffffff82169050919050565b60006103e2826103b7565b9050919050565b6103f2816103d7565b82525050565b60006040820190508181036000830152610412818561037e565b905061042160208301846103e9565b9392505050565b60006040820190508181036000830152610442818561037e565b9050610451602083018461029a565b9392505050565b7f4e487b7100000000000000000000000000000000000000000000000000000000600052605160045260246000fdfea2646970667358221220360f9f3a333d5acaa3147293365a240c4d5db279d805602f09a68a4a70524a8b64736f6c634300081300334575207365726569206f20636f6e747261746f20696e74656c6967656e746520706172612066617a657220756d20706f7374206e6f20547769747465722064657363656e7472616c697a61646f2e",
    "linkReferences": {},
    "deployedLinkReferences": {}
}